{
  "_format": "hh-sol-artifact-1",
  "contractName": "Election",
  "sourceName": "contracts/Election.sol",
  "abi": [
    {
      "anonymous": false,
      "inputs": [
        {
          "indexed": false,
          "internalType": "string",
          "name": "name",
          "type": "string"
        }
      ],
      "name": "ElectionCreated",
      "type": "event"
    },
    {
      "anonymous": false,
      "inputs": [
        {
          "indexed": false,
          "internalType": "uint256",
          "name": "electionIndex",
          "type": "uint256"
        },
        {
          "indexed": false,
          "internalType": "uint256",
          "name": "candidateIndex",
          "type": "uint256"
        }
      ],
      "name": "VoteCast",
      "type": "event"
    },
    {
      "anonymous": false,
      "inputs": [
        {
          "indexed": false,
          "internalType": "uint256",
          "name": "electionIndex",
          "type": "uint256"
        },
        {
          "indexed": false,
          "internalType": "address",
          "name": "voter",
          "type": "address"
        }
      ],
      "name": "VoterAdded",
      "type": "event"
    },
    {
      "inputs": [
        {
          "internalType": "uint256",
          "name": "electionIndex",
          "type": "uint256"
        }
      ],
      "name": "activateElection",
      "outputs": [],
      "stateMutability": "nonpayable",
      "type": "function"
    },
    {
      "inputs": [
        {
          "internalType": "uint256",
          "name": "electionIndex",
          "type": "uint256"
        },
        {
          "internalType": "string",
          "name": "_name",
          "type": "string"
        }
      ],
      "name": "addCandidates",
      "outputs": [],
      "stateMutability": "nonpayable",
      "type": "function"
    },
    {
      "inputs": [
        {
          "internalType": "uint256",
          "name": "electionIndex",
          "type": "uint256"
        },
        {
          "internalType": "address",
          "name": "voter",
          "type": "address"
        }
      ],
      "name": "addVoter",
      "outputs": [],
      "stateMutability": "nonpayable",
      "type": "function"
    },
    {
      "inputs": [
        {
          "internalType": "string",
          "name": "name",
          "type": "string"
        }
      ],
      "name": "createElection",
      "outputs": [],
      "stateMutability": "nonpayable",
      "type": "function"
    },
    {
      "inputs": [
        {
          "internalType": "uint256",
          "name": "",
          "type": "uint256"
        }
      ],
      "name": "elections",
      "outputs": [
        {
          "internalType": "string",
          "name": "name",
          "type": "string"
        },
        {
          "internalType": "address",
          "name": "owner",
          "type": "address"
        },
        {
          "internalType": "bool",
          "name": "isActive",
          "type": "bool"
        }
      ],
      "stateMutability": "view",
      "type": "function"
    },
    {
      "inputs": [
        {
          "internalType": "uint256",
          "name": "electionIndex",
          "type": "uint256"
        }
      ],
      "name": "endElection",
      "outputs": [],
      "stateMutability": "nonpayable",
      "type": "function"
    },
    {
      "inputs": [
        {
          "internalType": "uint256",
          "name": "electionIndex",
          "type": "uint256"
        }
      ],
      "name": "getElection",
      "outputs": [
        {
          "components": [
            {
              "internalType": "string",
              "name": "name",
              "type": "string"
            },
            {
              "internalType": "address",
              "name": "owner",
              "type": "address"
            },
            {
              "internalType": "bool",
              "name": "isActive",
              "type": "bool"
            }
          ],
          "internalType": "struct Election.ElectionData",
          "name": "",
          "type": "tuple"
        },
        {
          "components": [
            {
              "internalType": "string",
              "name": "name",
              "type": "string"
            },
            {
              "internalType": "uint256",
              "name": "voteCount",
              "type": "uint256"
            }
          ],
          "internalType": "struct Election.Candidate[]",
          "name": "",
          "type": "tuple[]"
        }
      ],
      "stateMutability": "view",
      "type": "function"
    },
    {
      "inputs": [],
      "name": "getElectionCount",
      "outputs": [
        {
          "internalType": "uint256",
          "name": "",
          "type": "uint256"
        }
      ],
      "stateMutability": "view",
      "type": "function"
    },
    {
      "inputs": [
        {
          "internalType": "uint256",
          "name": "electionIndex",
          "type": "uint256"
        }
      ],
      "name": "getVotersStatus",
      "outputs": [
        {
          "components": [
            {
              "internalType": "address",
              "name": "user",
              "type": "address"
            },
            {
              "internalType": "bool",
              "name": "hasVoted",
              "type": "bool"
            }
          ],
          "internalType": "struct Election.VoterData[]",
          "name": "",
          "type": "tuple[]"
        }
      ],
      "stateMutability": "view",
      "type": "function"
    },
    {
      "inputs": [
        {
          "internalType": "uint256",
          "name": "electionIndex",
          "type": "uint256"
        },
        {
          "internalType": "uint256",
          "name": "candidateIndex",
          "type": "uint256"
        }
      ],
      "name": "vote",
      "outputs": [],
      "stateMutability": "nonpayable",
      "type": "function"
    }
  ],
  "bytecode": "0x608060405234801561001057600080fd5b506120e6806100206000396000f3fe608060405234801561001057600080fd5b506004361061009e5760003560e01c80639d710777116100665780639d71077714610147578063b384abef14610178578063c5b15a3e14610194578063eb42a94c146101b0578063fb47eb7b146101cc5761009e565b806309391321146100a357806315cf4a5f146100bf578063213785a0146100db5780635e6fef01146100f95780639c98bcbb1461012b575b600080fd5b6100bd60048036038101906100b891906111d4565b6101fc565b005b6100d960048036038101906100d4919061135a565b6104ce565b005b6100e36105e6565b6040516100f091906113b2565b60405180910390f35b610113600480360381019061010e91906113cd565b6105f2565b604051610122939291906114a3565b60405180910390f35b610145600480360381019061014091906113cd565b6106e1565b005b610161600480360381019061015c91906113cd565b610811565b60405161016f9291906116a7565b60405180910390f35b610192600480360381019061018d91906116de565b610a5f565b005b6101ae60048036038101906101a9919061171e565b610dbf565b005b6101ca60048036038101906101c591906113cd565b610eea565b005b6101e660048036038101906101e191906113cd565b611014565b6040516101f39190611858565b60405180910390f35b60008083815481106102115761021061187a565b5b906000526020600020906002020190508060010160009054906101000a900473ffffffffffffffffffffffffffffffffffffffff1673ffffffffffffffffffffffffffffffffffffffff163373ffffffffffffffffffffffffffffffffffffffff16146102b3576040517f08c379a00000000000000000000000000000000000000000000000000000000081526004016102aa906118f5565b60405180910390fd5b600115156002600085815260200190815260200160002060008473ffffffffffffffffffffffffffffffffffffffff1673ffffffffffffffffffffffffffffffffffffffff16815260200190815260200160002060009054906101000a900460ff1615151514610358576040517f08c379a000000000000000000000000000000000000000000000000000000000815260040161034f90611987565b60405180910390fd5b60006002600085815260200190815260200160002060008473ffffffffffffffffffffffffffffffffffffffff1673ffffffffffffffffffffffffffffffffffffffff16815260200190815260200160002060006101000a81548160ff0219169083151502179055506001600084815260200190815260200160002060405180604001604052808473ffffffffffffffffffffffffffffffffffffffff168152602001600015158152509080600181540180825580915050600190039060005260206000200160009091909190915060008201518160000160006101000a81548173ffffffffffffffffffffffffffffffffffffffff021916908373ffffffffffffffffffffffffffffffffffffffff16021790555060208201518160000160146101000a81548160ff02191690831515021790555050507fbe03f66069cbbe16c325546c4cf7a8d334ab3baa0a1e50ad1b5955cf7565f51483836040516104c19291906119a7565b60405180910390a1505050565b600060405180606001604052808381526020013373ffffffffffffffffffffffffffffffffffffffff16815260200160001515815250908060018154018082558091505060019003906000526020600020906002020160009091909190915060008201518160000190816105429190611bdc565b5060208201518160010160006101000a81548173ffffffffffffffffffffffffffffffffffffffff021916908373ffffffffffffffffffffffffffffffffffffffff16021790555060408201518160010160146101000a81548160ff02191690831515021790555050507fca2fcb21be8a98de073c6f480caeadc3c4054effa10076cd2d6cb4fd381c4c91816040516105db9190611cae565b60405180910390a150565b60008080549050905090565b6000818154811061060257600080fd5b9060005260206000209060020201600091509050806000018054610625906119ff565b80601f0160208091040260200160405190810160405280929190818152602001828054610651906119ff565b801561069e5780601f106106735761010080835404028352916020019161069e565b820191906000526020600020905b81548152906001019060200180831161068157829003601f168201915b5050505050908060010160009054906101000a900473ffffffffffffffffffffffffffffffffffffffff16908060010160149054906101000a900460ff16905083565b60008082815481106106f6576106f561187a565b5b906000526020600020906002020190508060010160009054906101000a900473ffffffffffffffffffffffffffffffffffffffff1673ffffffffffffffffffffffffffffffffffffffff163373ffffffffffffffffffffffffffffffffffffffff1614610798576040517f08c379a000000000000000000000000000000000000000000000000000000000815260040161078f90611d42565b60405180910390fd5b600115158160010160149054906101000a900460ff161515146107f0576040517f08c379a00000000000000000000000000000000000000000000000000000000081526004016107e790611dae565b60405180910390fd5b60008160010160146101000a81548160ff0219169083151502179055505050565b6108196110f3565b60606000838154811061082f5761082e61187a565b5b9060005260206000209060020201600360008581526020019081526020016000208160405180606001604052908160008201805461086c906119ff565b80601f0160208091040260200160405190810160405280929190818152602001828054610898906119ff565b80156108e55780601f106108ba576101008083540402835291602001916108e5565b820191906000526020600020905b8154815290600101906020018083116108c857829003601f168201915b505050505081526020016001820160009054906101000a900473ffffffffffffffffffffffffffffffffffffffff1673ffffffffffffffffffffffffffffffffffffffff1673ffffffffffffffffffffffffffffffffffffffff1681526020016001820160149054906101000a900460ff161515151581525050915080805480602002602001604051908101604052809291908181526020016000905b82821015610a5057838290600052602060002090600202016040518060400160405290816000820180546109b5906119ff565b80601f01602080910402602001604051908101604052809291908181526020018280546109e1906119ff565b8015610a2e5780601f10610a0357610100808354040283529160200191610a2e565b820191906000526020600020905b815481529060010190602001808311610a1157829003601f168201915b5050505050815260200160018201548152505081526020019060010190610982565b50505050905091509150915091565b6000808381548110610a7457610a7361187a565b5b90600052602060002090600202019050600115156002600085815260200190815260200160002060003373ffffffffffffffffffffffffffffffffffffffff1673ffffffffffffffffffffffffffffffffffffffff16815260200190815260200160002060009054906101000a900460ff1615151514610b29576040517f08c379a0000000000000000000000000000000000000000000000000000000008152600401610b2090611e1a565b60405180910390fd5b8060010160149054906101000a900460ff16610b7a576040517f08c379a0000000000000000000000000000000000000000000000000000000008152600401610b7190611e86565b60405180910390fd5b6000805b6001600086815260200190815260200160002080549050811015610c83573373ffffffffffffffffffffffffffffffffffffffff16600160008781526020019081526020016000208281548110610bd857610bd761187a565b5b9060005260206000200160000160009054906101000a900473ffffffffffffffffffffffffffffffffffffffff1673ffffffffffffffffffffffffffffffffffffffff1603610c70576001915060018060008781526020019081526020016000208281548110610c4b57610c4a61187a565b5b9060005260206000200160000160146101000a81548160ff0219169083151502179055505b8080610c7b90611ed5565b915050610b7e565b506001151581151514610ccb576040517f08c379a0000000000000000000000000000000000000000000000000000000008152600401610cc290611f69565b60405180910390fd5b60016002600086815260200190815260200160002060003373ffffffffffffffffffffffffffffffffffffffff1673ffffffffffffffffffffffffffffffffffffffff16815260200190815260200160002060006101000a81548160ff021916908315150217905550600360008581526020019081526020016000208381548110610d5957610d5861187a565b5b90600052602060002090600202016001016000815480929190610d7b90611ed5565b91905055507fc31875ef3ed5138b71a0c1da7e494bc4d2ba4f567084ea481ec9c45f3a93948b8484604051610db1929190611f89565b60405180910390a150505050565b60008281548110610dd357610dd261187a565b5b906000526020600020906002020160010160009054906101000a900473ffffffffffffffffffffffffffffffffffffffff1673ffffffffffffffffffffffffffffffffffffffff163373ffffffffffffffffffffffffffffffffffffffff1614610e72576040517f08c379a0000000000000000000000000000000000000000000000000000000008152600401610e6990612024565b60405180910390fd5b600360008381526020019081526020016000206040518060400160405280838152602001600081525090806001815401808255809150506001900390600052602060002090600202016000909190919091506000820151816000019081610ed99190611bdc565b506020820151816001015550505050565b6000808281548110610eff57610efe61187a565b5b906000526020600020906002020190508060010160009054906101000a900473ffffffffffffffffffffffffffffffffffffffff1673ffffffffffffffffffffffffffffffffffffffff163373ffffffffffffffffffffffffffffffffffffffff1614610fa1576040517f08c379a0000000000000000000000000000000000000000000000000000000008152600401610f9890611d42565b60405180910390fd5b8060010160149054906101000a900460ff1615610ff3576040517f08c379a0000000000000000000000000000000000000000000000000000000008152600401610fea90612090565b60405180910390fd5b60018160010160146101000a81548160ff0219169083151502179055505050565b606060016000838152602001908152602001600020805480602002602001604051908101604052809291908181526020016000905b828210156110e8578382906000526020600020016040518060400160405290816000820160009054906101000a900473ffffffffffffffffffffffffffffffffffffffff1673ffffffffffffffffffffffffffffffffffffffff1673ffffffffffffffffffffffffffffffffffffffff1681526020016000820160149054906101000a900460ff16151515158152505081526020019060010190611049565b505050509050919050565b604051806060016040528060608152602001600073ffffffffffffffffffffffffffffffffffffffff1681526020016000151581525090565b6000604051905090565b600080fd5b600080fd5b6000819050919050565b61115381611140565b811461115e57600080fd5b50565b6000813590506111708161114a565b92915050565b600073ffffffffffffffffffffffffffffffffffffffff82169050919050565b60006111a182611176565b9050919050565b6111b181611196565b81146111bc57600080fd5b50565b6000813590506111ce816111a8565b92915050565b600080604083850312156111eb576111ea611136565b5b60006111f985828601611161565b925050602061120a858286016111bf565b9150509250929050565b600080fd5b600080fd5b6000601f19601f8301169050919050565b7f4e487b7100000000000000000000000000000000000000000000000000000000600052604160045260246000fd5b6112678261121e565b810181811067ffffffffffffffff821117156112865761128561122f565b5b80604052505050565b600061129961112c565b90506112a5828261125e565b919050565b600067ffffffffffffffff8211156112c5576112c461122f565b5b6112ce8261121e565b9050602081019050919050565b82818337600083830152505050565b60006112fd6112f8846112aa565b61128f565b90508281526020810184848401111561131957611318611219565b5b6113248482856112db565b509392505050565b600082601f83011261134157611340611214565b5b81356113518482602086016112ea565b91505092915050565b6000602082840312156113705761136f611136565b5b600082013567ffffffffffffffff81111561138e5761138d61113b565b5b61139a8482850161132c565b91505092915050565b6113ac81611140565b82525050565b60006020820190506113c760008301846113a3565b92915050565b6000602082840312156113e3576113e2611136565b5b60006113f184828501611161565b91505092915050565b600081519050919050565b600082825260208201905092915050565b60005b83811015611434578082015181840152602081019050611419565b60008484015250505050565b600061144b826113fa565b6114558185611405565b9350611465818560208601611416565b61146e8161121e565b840191505092915050565b61148281611196565b82525050565b60008115159050919050565b61149d81611488565b82525050565b600060608201905081810360008301526114bd8186611440565b90506114cc6020830185611479565b6114d96040830184611494565b949350505050565b600082825260208201905092915050565b60006114fd826113fa565b61150781856114e1565b9350611517818560208601611416565b6115208161121e565b840191505092915050565b61153481611196565b82525050565b61154381611488565b82525050565b6000606083016000830151848203600086015261156682826114f2565b915050602083015161157b602086018261152b565b50604083015161158e604086018261153a565b508091505092915050565b600081519050919050565b600082825260208201905092915050565b6000819050602082019050919050565b6115ce81611140565b82525050565b600060408301600083015184820360008601526115f182826114f2565b915050602083015161160660208601826115c5565b508091505092915050565b600061161d83836115d4565b905092915050565b6000602082019050919050565b600061163d82611599565b61164781856115a4565b935083602082028501611659856115b5565b8060005b8581101561169557848403895281516116768582611611565b945061168183611625565b925060208a0199505060018101905061165d565b50829750879550505050505092915050565b600060408201905081810360008301526116c18185611549565b905081810360208301526116d58184611632565b90509392505050565b600080604083850312156116f5576116f4611136565b5b600061170385828601611161565b925050602061171485828601611161565b9150509250929050565b6000806040838503121561173557611734611136565b5b600061174385828601611161565b925050602083013567ffffffffffffffff8111156117645761176361113b565b5b6117708582860161132c565b9150509250929050565b600081519050919050565b600082825260208201905092915050565b6000819050602082019050919050565b6040820160008201516117bc600085018261152b565b5060208201516117cf602085018261153a565b50505050565b60006117e183836117a6565b60408301905092915050565b6000602082019050919050565b60006118058261177a565b61180f8185611785565b935061181a83611796565b8060005b8381101561184b57815161183288826117d5565b975061183d836117ed565b92505060018101905061181e565b5085935050505092915050565b6000602082019050818103600083015261187281846117fa565b905092915050565b7f4e487b7100000000000000000000000000000000000000000000000000000000600052603260045260246000fd5b7f4f6e6c7920746865206f776e65722063616e2061646420766f746572732e0000600082015250565b60006118df601e83611405565b91506118ea826118a9565b602082019050919050565b6000602082019050818103600083015261190e816118d2565b9050919050565b7f54686520766f7465722068617320616c7265616479206265656e20616464656460008201527f2e00000000000000000000000000000000000000000000000000000000000000602082015250565b6000611971602183611405565b915061197c82611915565b604082019050919050565b600060208201905081810360008301526119a081611964565b9050919050565b60006040820190506119bc60008301856113a3565b6119c96020830184611479565b9392505050565b7f4e487b7100000000000000000000000000000000000000000000000000000000600052602260045260246000fd5b60006002820490506001821680611a1757607f821691505b602082108103611a2a57611a296119d0565b5b50919050565b60008190508160005260206000209050919050565b60006020601f8301049050919050565b600082821b905092915050565b600060088302611a927fffffffffffffffffffffffffffffffffffffffffffffffffffffffffffffffff82611a55565b611a9c8683611a55565b95508019841693508086168417925050509392505050565b6000819050919050565b6000611ad9611ad4611acf84611140565b611ab4565b611140565b9050919050565b6000819050919050565b611af383611abe565b611b07611aff82611ae0565b848454611a62565b825550505050565b600090565b611b1c611b0f565b611b27818484611aea565b505050565b5b81811015611b4b57611b40600082611b14565b600181019050611b2d565b5050565b601f821115611b9057611b6181611a30565b611b6a84611a45565b81016020851015611b79578190505b611b8d611b8585611a45565b830182611b2c565b50505b505050565b600082821c905092915050565b6000611bb360001984600802611b95565b1980831691505092915050565b6000611bcc8383611ba2565b9150826002028217905092915050565b611be5826113fa565b67ffffffffffffffff811115611bfe57611bfd61122f565b5b611c0882546119ff565b611c13828285611b4f565b600060209050601f831160018114611c465760008415611c34578287015190505b611c3e8582611bc0565b865550611ca6565b601f198416611c5486611a30565b60005b82811015611c7c57848901518255600182019150602085019450602081019050611c57565b86831015611c995784890151611c95601f891682611ba2565b8355505b6001600288020188555050505b505050505050565b60006020820190508181036000830152611cc88184611440565b905092915050565b7f4f6e6c7920746865206f776e65722063616e206163746976617465207468652060008201527f656c656374696f6e2e0000000000000000000000000000000000000000000000602082015250565b6000611d2c602983611405565b9150611d3782611cd0565b604082019050919050565b60006020820190508181036000830152611d5b81611d1f565b9050919050565b7f5468697320656c656374696f6e2068617320616c726561647920656e6465642e600082015250565b6000611d98602083611405565b9150611da382611d62565b602082019050919050565b60006020820190508181036000830152611dc781611d8b565b9050919050565b7f54686520766f7465722068617320616c726561647920766f7465642e00000000600082015250565b6000611e04601c83611405565b9150611e0f82611dce565b602082019050919050565b60006020820190508181036000830152611e3381611df7565b9050919050565b7f5468697320656c656374696f6e206973206e6f74206163746976652e00000000600082015250565b6000611e70601c83611405565b9150611e7b82611e3a565b602082019050919050565b60006020820190508181036000830152611e9f81611e63565b9050919050565b7f4e487b7100000000000000000000000000000000000000000000000000000000600052601160045260246000fd5b6000611ee082611140565b91507fffffffffffffffffffffffffffffffffffffffffffffffffffffffffffffffff8203611f1257611f11611ea6565b5b600182019050919050565b7f74686520566f746572206973206e6f742061646465642e000000000000000000600082015250565b6000611f53601783611405565b9150611f5e82611f1d565b602082019050919050565b60006020820190508181036000830152611f8281611f46565b9050919050565b6000604082019050611f9e60008301856113a3565b611fab60208301846113a3565b9392505050565b7f4f6e6c7920746865206f776e65722063616e206164642063616e64696461746560008201527f7300000000000000000000000000000000000000000000000000000000000000602082015250565b600061200e602183611405565b915061201982611fb2565b604082019050919050565b6000602082019050818103600083015261203d81612001565b9050919050565b7f5468697320656c656374696f6e20697320616c7265616479206163746976652e600082015250565b600061207a602083611405565b915061208582612044565b602082019050919050565b600060208201905081810360008301526120a98161206d565b905091905056fea2646970667358221220ae52be83c5be76a30a52f56162a56ba8c556d7deba19a4750f35f1d722318d5664736f6c63430008110033",
  "linkReferences": {},
  "deployedLinkReferences": {}
}