{
  "_format": "hh-sol-artifact-1",
  "contractName": "Election",
  "sourceName": "contracts/Election.sol",
  "abi": [
    {
      "anonymous": false,
      "inputs": [
        {
          "indexed": false,
          "internalType": "string",
          "name": "name",
          "type": "string"
        }
      ],
      "name": "ElectionCreated",
      "type": "event"
    },
    {
      "anonymous": false,
      "inputs": [
        {
          "indexed": false,
          "internalType": "uint256",
          "name": "electionIndex",
          "type": "uint256"
        },
        {
          "indexed": false,
          "internalType": "uint256",
          "name": "candidateIndex",
          "type": "uint256"
        }
      ],
      "name": "VoteCast",
      "type": "event"
    },
    {
      "anonymous": false,
      "inputs": [
        {
          "indexed": false,
          "internalType": "uint256",
          "name": "electionIndex",
          "type": "uint256"
        },
        {
          "indexed": false,
          "internalType": "address",
          "name": "voter",
          "type": "address"
        }
      ],
      "name": "VoterAdded",
      "type": "event"
    },
    {
      "inputs": [
        {
          "internalType": "uint256",
          "name": "electionIndex",
          "type": "uint256"
        }
      ],
      "name": "activateElection",
      "outputs": [],
      "stateMutability": "nonpayable",
      "type": "function"
    },
    {
      "inputs": [
        {
          "internalType": "uint256",
          "name": "electionIndex",
          "type": "uint256"
        },
        {
          "internalType": "string",
          "name": "_name",
          "type": "string"
        }
      ],
      "name": "addCandidates",
      "outputs": [],
      "stateMutability": "nonpayable",
      "type": "function"
    },
    {
      "inputs": [
        {
          "internalType": "uint256",
          "name": "electionIndex",
          "type": "uint256"
        },
        {
          "internalType": "address",
          "name": "voter",
          "type": "address"
        }
      ],
      "name": "addVoter",
      "outputs": [],
      "stateMutability": "nonpayable",
      "type": "function"
    },
    {
      "inputs": [
        {
          "internalType": "string",
          "name": "name",
          "type": "string"
        }
      ],
      "name": "createElection",
      "outputs": [],
      "stateMutability": "nonpayable",
      "type": "function"
    },
    {
      "inputs": [
        {
          "internalType": "uint256",
          "name": "",
          "type": "uint256"
        }
      ],
      "name": "elections",
      "outputs": [
        {
          "internalType": "string",
          "name": "name",
          "type": "string"
        },
        {
          "internalType": "address",
          "name": "owner",
          "type": "address"
        },
        {
          "internalType": "bool",
          "name": "isActive",
          "type": "bool"
        }
      ],
      "stateMutability": "view",
      "type": "function"
    },
    {
      "inputs": [
        {
          "internalType": "uint256",
          "name": "electionIndex",
          "type": "uint256"
        }
      ],
      "name": "endElection",
      "outputs": [],
      "stateMutability": "nonpayable",
      "type": "function"
    },
    {
      "inputs": [
        {
          "internalType": "uint256",
          "name": "electionIndex",
          "type": "uint256"
        }
      ],
      "name": "getElection",
      "outputs": [
        {
          "internalType": "string",
          "name": "",
          "type": "string"
        },
        {
          "components": [
            {
              "internalType": "string",
              "name": "name",
              "type": "string"
            },
            {
              "internalType": "uint256",
              "name": "voteCount",
              "type": "uint256"
            }
          ],
          "internalType": "struct Election.Candidate[]",
          "name": "",
          "type": "tuple[]"
        }
      ],
      "stateMutability": "view",
      "type": "function"
    },
    {
      "inputs": [],
      "name": "getElectionCount",
      "outputs": [
        {
          "internalType": "uint256",
          "name": "",
          "type": "uint256"
        }
      ],
      "stateMutability": "view",
      "type": "function"
    },
    {
      "inputs": [
        {
          "internalType": "uint256",
          "name": "electionIndex",
          "type": "uint256"
        },
        {
          "internalType": "uint256",
          "name": "candidateIndex",
          "type": "uint256"
        }
      ],
      "name": "vote",
      "outputs": [],
      "stateMutability": "nonpayable",
      "type": "function"
    }
  ],
  "bytecode": "0x608060405234801561001057600080fd5b50611b13806100206000396000f3fe608060405234801561001057600080fd5b50600436106100935760003560e01c80639c98bcbb116100665780639c98bcbb146101205780639d7107771461013c578063b384abef1461016d578063c5b15a3e14610189578063eb42a94c146101a557610093565b8063093913211461009857806315cf4a5f146100b4578063213785a0146100d05780635e6fef01146100ee575b600080fd5b6100b260048036038101906100ad9190610ddb565b6101c1565b005b6100ce60048036038101906100c99190610f61565b6103c4565b005b6100d86104dc565b6040516100e59190610fb9565b60405180910390f35b61010860048036038101906101039190610fd4565b6104e8565b604051610117939291906110aa565b60405180910390f35b61013a60048036038101906101359190610fd4565b6105d7565b005b61015660048036038101906101519190610fd4565b610707565b604051610164929190611240565b60405180910390f35b61018760048036038101906101829190611277565b6108d1565b005b6101a3600480360381019061019e91906112b7565b610ade565b005b6101bf60048036038101906101ba9190610fd4565b610c09565b005b60008083815481106101d6576101d5611313565b5b906000526020600020906002020190508060010160009054906101000a900473ffffffffffffffffffffffffffffffffffffffff1673ffffffffffffffffffffffffffffffffffffffff163373ffffffffffffffffffffffffffffffffffffffff1614610278576040517f08c379a000000000000000000000000000000000000000000000000000000000815260040161026f9061138e565b60405180910390fd5b600115156001600085815260200190815260200160002060008473ffffffffffffffffffffffffffffffffffffffff1673ffffffffffffffffffffffffffffffffffffffff16815260200190815260200160002060009054906101000a900460ff161515151461031d576040517f08c379a000000000000000000000000000000000000000000000000000000000815260040161031490611420565b60405180910390fd5b60006001600085815260200190815260200160002060008473ffffffffffffffffffffffffffffffffffffffff1673ffffffffffffffffffffffffffffffffffffffff16815260200190815260200160002060006101000a81548160ff0219169083151502179055507fbe03f66069cbbe16c325546c4cf7a8d334ab3baa0a1e50ad1b5955cf7565f51483836040516103b7929190611440565b60405180910390a1505050565b600060405180606001604052808381526020013373ffffffffffffffffffffffffffffffffffffffff16815260200160001515815250908060018154018082558091505060019003906000526020600020906002020160009091909190915060008201518160000190816104389190611675565b5060208201518160010160006101000a81548173ffffffffffffffffffffffffffffffffffffffff021916908373ffffffffffffffffffffffffffffffffffffffff16021790555060408201518160010160146101000a81548160ff02191690831515021790555050507fca2fcb21be8a98de073c6f480caeadc3c4054effa10076cd2d6cb4fd381c4c91816040516104d19190611747565b60405180910390a150565b60008080549050905090565b600081815481106104f857600080fd5b906000526020600020906002020160009150905080600001805461051b90611498565b80601f016020809104026020016040519081016040528092919081815260200182805461054790611498565b80156105945780601f1061056957610100808354040283529160200191610594565b820191906000526020600020905b81548152906001019060200180831161057757829003601f168201915b5050505050908060010160009054906101000a900473ffffffffffffffffffffffffffffffffffffffff16908060010160149054906101000a900460ff16905083565b60008082815481106105ec576105eb611313565b5b906000526020600020906002020190508060010160009054906101000a900473ffffffffffffffffffffffffffffffffffffffff1673ffffffffffffffffffffffffffffffffffffffff163373ffffffffffffffffffffffffffffffffffffffff161461068e576040517f08c379a0000000000000000000000000000000000000000000000000000000008152600401610685906117db565b60405180910390fd5b600115158160010160149054906101000a900460ff161515146106e6576040517f08c379a00000000000000000000000000000000000000000000000000000000081526004016106dd90611847565b60405180910390fd5b60008160010160146101000a81548160ff0219169083151502179055505050565b606080600080848154811061071f5761071e611313565b5b90600052602060002090600202019050806000016002600086815260200190815260200160002081805461075290611498565b80601f016020809104026020016040519081016040528092919081815260200182805461077e90611498565b80156107cb5780601f106107a0576101008083540402835291602001916107cb565b820191906000526020600020905b8154815290600101906020018083116107ae57829003601f168201915b5050505050915080805480602002602001604051908101604052809291908181526020016000905b828210156108c1578382906000526020600020906002020160405180604001604052908160008201805461082690611498565b80601f016020809104026020016040519081016040528092919081815260200182805461085290611498565b801561089f5780601f106108745761010080835404028352916020019161089f565b820191906000526020600020905b81548152906001019060200180831161088257829003601f168201915b50505050508152602001600182015481525050815260200190600101906107f3565b5050505090509250925050915091565b60008083815481106108e6576108e5611313565b5b90600052602060002090600202019050600115156001600085815260200190815260200160002060003373ffffffffffffffffffffffffffffffffffffffff1673ffffffffffffffffffffffffffffffffffffffff16815260200190815260200160002060009054906101000a900460ff161515151461099b576040517f08c379a0000000000000000000000000000000000000000000000000000000008152600401610992906118b3565b60405180910390fd5b8060010160149054906101000a900460ff166109ec576040517f08c379a00000000000000000000000000000000000000000000000000000000081526004016109e39061191f565b60405180910390fd5b600180600085815260200190815260200160002060003373ffffffffffffffffffffffffffffffffffffffff1673ffffffffffffffffffffffffffffffffffffffff16815260200190815260200160002060006101000a81548160ff021916908315150217905550600260008481526020019081526020016000208281548110610a7957610a78611313565b5b90600052602060002090600202016001016000815480929190610a9b9061196e565b91905055507fc31875ef3ed5138b71a0c1da7e494bc4d2ba4f567084ea481ec9c45f3a93948b8383604051610ad19291906119b6565b60405180910390a1505050565b60008281548110610af257610af1611313565b5b906000526020600020906002020160010160009054906101000a900473ffffffffffffffffffffffffffffffffffffffff1673ffffffffffffffffffffffffffffffffffffffff163373ffffffffffffffffffffffffffffffffffffffff1614610b91576040517f08c379a0000000000000000000000000000000000000000000000000000000008152600401610b8890611a51565b60405180910390fd5b600260008381526020019081526020016000206040518060400160405280838152602001600081525090806001815401808255809150506001900390600052602060002090600202016000909190919091506000820151816000019081610bf89190611675565b506020820151816001015550505050565b6000808281548110610c1e57610c1d611313565b5b906000526020600020906002020190508060010160009054906101000a900473ffffffffffffffffffffffffffffffffffffffff1673ffffffffffffffffffffffffffffffffffffffff163373ffffffffffffffffffffffffffffffffffffffff1614610cc0576040517f08c379a0000000000000000000000000000000000000000000000000000000008152600401610cb7906117db565b60405180910390fd5b8060010160149054906101000a900460ff1615610d12576040517f08c379a0000000000000000000000000000000000000000000000000000000008152600401610d0990611abd565b60405180910390fd5b60018160010160146101000a81548160ff0219169083151502179055505050565b6000604051905090565b600080fd5b600080fd5b6000819050919050565b610d5a81610d47565b8114610d6557600080fd5b50565b600081359050610d7781610d51565b92915050565b600073ffffffffffffffffffffffffffffffffffffffff82169050919050565b6000610da882610d7d565b9050919050565b610db881610d9d565b8114610dc357600080fd5b50565b600081359050610dd581610daf565b92915050565b60008060408385031215610df257610df1610d3d565b5b6000610e0085828601610d68565b9250506020610e1185828601610dc6565b9150509250929050565b600080fd5b600080fd5b6000601f19601f8301169050919050565b7f4e487b7100000000000000000000000000000000000000000000000000000000600052604160045260246000fd5b610e6e82610e25565b810181811067ffffffffffffffff82111715610e8d57610e8c610e36565b5b80604052505050565b6000610ea0610d33565b9050610eac8282610e65565b919050565b600067ffffffffffffffff821115610ecc57610ecb610e36565b5b610ed582610e25565b9050602081019050919050565b82818337600083830152505050565b6000610f04610eff84610eb1565b610e96565b905082815260208101848484011115610f2057610f1f610e20565b5b610f2b848285610ee2565b509392505050565b600082601f830112610f4857610f47610e1b565b5b8135610f58848260208601610ef1565b91505092915050565b600060208284031215610f7757610f76610d3d565b5b600082013567ffffffffffffffff811115610f9557610f94610d42565b5b610fa184828501610f33565b91505092915050565b610fb381610d47565b82525050565b6000602082019050610fce6000830184610faa565b92915050565b600060208284031215610fea57610fe9610d3d565b5b6000610ff884828501610d68565b91505092915050565b600081519050919050565b600082825260208201905092915050565b60005b8381101561103b578082015181840152602081019050611020565b60008484015250505050565b600061105282611001565b61105c818561100c565b935061106c81856020860161101d565b61107581610e25565b840191505092915050565b61108981610d9d565b82525050565b60008115159050919050565b6110a48161108f565b82525050565b600060608201905081810360008301526110c48186611047565b90506110d36020830185611080565b6110e0604083018461109b565b949350505050565b600081519050919050565b600082825260208201905092915050565b6000819050602082019050919050565b600082825260208201905092915050565b600061113082611001565b61113a8185611114565b935061114a81856020860161101d565b61115381610e25565b840191505092915050565b61116781610d47565b82525050565b6000604083016000830151848203600086015261118a8282611125565b915050602083015161119f602086018261115e565b508091505092915050565b60006111b6838361116d565b905092915050565b6000602082019050919050565b60006111d6826110e8565b6111e081856110f3565b9350836020820285016111f285611104565b8060005b8581101561122e578484038952815161120f85826111aa565b945061121a836111be565b925060208a019950506001810190506111f6565b50829750879550505050505092915050565b6000604082019050818103600083015261125a8185611047565b9050818103602083015261126e81846111cb565b90509392505050565b6000806040838503121561128e5761128d610d3d565b5b600061129c85828601610d68565b92505060206112ad85828601610d68565b9150509250929050565b600080604083850312156112ce576112cd610d3d565b5b60006112dc85828601610d68565b925050602083013567ffffffffffffffff8111156112fd576112fc610d42565b5b61130985828601610f33565b9150509250929050565b7f4e487b7100000000000000000000000000000000000000000000000000000000600052603260045260246000fd5b7f4f6e6c7920746865206f776e65722063616e2061646420766f746572732e0000600082015250565b6000611378601e8361100c565b915061138382611342565b602082019050919050565b600060208201905081810360008301526113a78161136b565b9050919050565b7f54686520766f7465722068617320616c7265616479206265656e20616464656460008201527f2e00000000000000000000000000000000000000000000000000000000000000602082015250565b600061140a60218361100c565b9150611415826113ae565b604082019050919050565b60006020820190508181036000830152611439816113fd565b9050919050565b60006040820190506114556000830185610faa565b6114626020830184611080565b9392505050565b7f4e487b7100000000000000000000000000000000000000000000000000000000600052602260045260246000fd5b600060028204905060018216806114b057607f821691505b6020821081036114c3576114c2611469565b5b50919050565b60008190508160005260206000209050919050565b60006020601f8301049050919050565b600082821b905092915050565b60006008830261152b7fffffffffffffffffffffffffffffffffffffffffffffffffffffffffffffffff826114ee565b61153586836114ee565b95508019841693508086168417925050509392505050565b6000819050919050565b600061157261156d61156884610d47565b61154d565b610d47565b9050919050565b6000819050919050565b61158c83611557565b6115a061159882611579565b8484546114fb565b825550505050565b600090565b6115b56115a8565b6115c0818484611583565b505050565b5b818110156115e4576115d96000826115ad565b6001810190506115c6565b5050565b601f821115611629576115fa816114c9565b611603846114de565b81016020851015611612578190505b61162661161e856114de565b8301826115c5565b50505b505050565b600082821c905092915050565b600061164c6000198460080261162e565b1980831691505092915050565b6000611665838361163b565b9150826002028217905092915050565b61167e82611001565b67ffffffffffffffff81111561169757611696610e36565b5b6116a18254611498565b6116ac8282856115e8565b600060209050601f8311600181146116df57600084156116cd578287015190505b6116d78582611659565b86555061173f565b601f1984166116ed866114c9565b60005b82811015611715578489015182556001820191506020850194506020810190506116f0565b86831015611732578489015161172e601f89168261163b565b8355505b6001600288020188555050505b505050505050565b600060208201905081810360008301526117618184611047565b905092915050565b7f4f6e6c7920746865206f776e65722063616e206163746976617465207468652060008201527f656c656374696f6e2e0000000000000000000000000000000000000000000000602082015250565b60006117c560298361100c565b91506117d082611769565b604082019050919050565b600060208201905081810360008301526117f4816117b8565b9050919050565b7f5468697320656c656374696f6e2068617320616c726561647920656e6465642e600082015250565b600061183160208361100c565b915061183c826117fb565b602082019050919050565b6000602082019050818103600083015261186081611824565b9050919050565b7f54686520766f7465722068617320616c726561647920766f7465642e00000000600082015250565b600061189d601c8361100c565b91506118a882611867565b602082019050919050565b600060208201905081810360008301526118cc81611890565b9050919050565b7f5468697320656c656374696f6e206973206e6f74206163746976652e00000000600082015250565b6000611909601c8361100c565b9150611914826118d3565b602082019050919050565b60006020820190508181036000830152611938816118fc565b9050919050565b7f4e487b7100000000000000000000000000000000000000000000000000000000600052601160045260246000fd5b600061197982610d47565b91507fffffffffffffffffffffffffffffffffffffffffffffffffffffffffffffffff82036119ab576119aa61193f565b5b600182019050919050565b60006040820190506119cb6000830185610faa565b6119d86020830184610faa565b9392505050565b7f4f6e6c7920746865206f776e65722063616e206164642063616e64696461746560008201527f7300000000000000000000000000000000000000000000000000000000000000602082015250565b6000611a3b60218361100c565b9150611a46826119df565b604082019050919050565b60006020820190508181036000830152611a6a81611a2e565b9050919050565b7f5468697320656c656374696f6e20697320616c7265616479206163746976652e600082015250565b6000611aa760208361100c565b9150611ab282611a71565b602082019050919050565b60006020820190508181036000830152611ad681611a9a565b905091905056fea2646970667358221220ca41683795135eefa043deef0e6d88fd9fa60feb24b2d2bae0f35c89f671016964736f6c63430008110033",
  "linkReferences": {},
  "deployedLinkReferences": {}
}